:100000000C9434000C9451000C9451000C94510049
:100010000C9451000C9451000C9451000C9451001C
:100020000C9451000C9451000C9451000C9451000C
:100030000C9451000C9451000C9451000C945100FC
:100040000C94AA000C9451000C9451000C94510093
:100050000C9451000C9451000C9451000C945100DC
:100060000C9451000C94510011241FBECFEFD8E026
:10007000DEBFCDBF11E0A0E0B1E0EAECF2E002C0EB
:1000800005900D92A230B107D9F721E0A2E0B1E0CE
:1000900001C01D92AB30B207E1F70E94F4000C944E
:1000A00063010C9400003FB7F89480910701909190
:1000B0000801A0910901B0910A0126B5A89B05C0CD
:1000C0002F3F19F00196A11DB11D3FBFBA2FA92FD7
:1000D000982F8827BC01CD01620F711D811D911DD4
:1000E00042E0660F771F881F991F4A95D1F7089540
:1000F0008F929F92AF92BF92CF92DF92EF92FF9238
:100100004B015C010E9453006B017C010E94530073
:100110006C197D098E099F09683E73408105910520
:10012000A8F321E0821A9108A108B10888EEC80E50
:1001300083E0D81EE11CF11C81149104A104B104D8
:1001400029F7FF90EF90DF90CF90BF90AF909F90F6
:100150008F9008951F920F920FB60F9211242F9334
:100160003F938F939F93AF93BF938091030190919F
:100170000401A0910501B09106013091020123E034
:10018000230F2D3758F50196A11DB11D20930201B3
:100190008093030190930401A0930501B09306019D
:1001A0008091070190910801A0910901B0910A0185
:1001B0000196A11DB11D8093070190930801A093A2
:1001C0000901B0930A01BF91AF919F918F913F9127
:1001D0002F910F900FBE0F901F90189526E8230FB8
:1001E0000296A11DB11DD2CF789484B5826084BDE2
:1001F00084B5816084BD85B5826085BD85B581602B
:1002000085BD80916E00816080936E0010928100A8
:100210008091810082608093810080918100816063
:100220008093810080918000816080938000809124
:10023000B10084608093B1008091B00081608093B0
:10024000B00080917A00846080937A0080917A0077
:10025000826080937A0080917A00816080937A0036
:1002600080917A00806880937A001092C100259A6C
:1002700010E2C0E0D0E080910001909101019C016A
:100280002F5F3F4F309301012093000123B135E0F0
:10029000880F991F3A95E1F7822B83B9000068EC2B
:1002A00070E080E090E00E94780085B1812785B9F8
:1002B00064E670E080E090E00E9478002097D9F238
:0A02C0000E940000D8CFF894FFCF91
:0202CA0003002F
:00000001FF
